:020000040800F2
:10000000902B0020C90100086B310008392D000831
:1000100069310008F702000841570008000000009D
:10002000000000000000000000000000A9380008E7
:10003000F9020008000000007B350008AB3800081A
:10004000E3010008E3010008E3010008E301000800
:10005000E3010008E3010008E3010008E3010008F0
:10006000E3010008E3010008E3010008E3010008E0
:10007000E3010008E3010008E3010008E3010008D0
:10008000E3010008E3010008E3010008E3010008C0
:10009000B9560008E3010008E3010008E301000885
:1000A000E3010008E3010008E3010008E3010008A0
:1000B00035390008E301000849390008E301000868
:1000C000E3010008E3010008E3010008E301000880
:1000D000E3010008E3010008E3010008E301000870
:1000E000E3010008E3010008E301000800F002F862
:1000F00000F05AF80AA090E8000C82448344AAF168
:100100000107DA4501D100F04FF8AFF2090EBAE865
:100110000F0013F0010F18BFFB1A43F0010318473B
:10012000306F0000506F00000A444FF0000C10F8D0
:10013000013B13F0070408BF10F8014B1D1108BF65
:1001400010F8015B641E05D010F8016B641E01F805
:10015000016BF9D113F0080F1EBF10F8014BAD1C55
:100160000C1B09D16D1E58BF01F801CBFAD505E073
:1001700014F8016B01F8016B6D1EF9D59142D6D3CD
:10018000704700000023002400250026103A28BFF5
:1001900078C1FBD8520728BF30C148BF0B607047F9
:1001A0001FB51FBD10B510BD00F06BF81146FFF76D
:1001B000F7FF05F007FC00F089F803B4FFF7F2FF42
:1001C00003BC00F091F80000094880470948004747
:1001D000FEE7FEE7FEE7FEE7FEE7FEE7FEE7FEE7F7
:1001E000FEE7FEE704480549054A064B7047000054
:1001F00033390008ED000008900B0020902B002000
:10020000901B0020901B0020B2F120030AD5C2F100
:10021000200320FA02F001FA03F321FA02F140EA86
:100220000300704721FA03F04FF0000170474FF0D0
:10023000000200B5134694469646203922BFA0E836
:100240000C50A0E80C50B1F12001BFF4F7AF090742
:1002500028BFA0E80C5048BF0CC05DF804EB890033
:1002600028BF40F8042B08BF704748BF20F8022B76
:1002700011F0804F18BF00F8012B7047704770478E
:100280007047754600F02CF8AE46050069465346A7
:1002900020F00700854618B020B5FFF7A3FFBDE8A2
:1002A00020404FF000064FF000074FF000084FF0DD
:1002B000000B21F00701AC46ACE8C009ACE8C0096E
:1002C000ACE8C009ACE8C0098D46704710B50446DB
:1002D000AFF300802046BDE81040FFF76EBF00007E
:1002E00000487047300B002001491820ABBEFEE7E4
:1002F000260002007047FEE7704772B6FEE7000076
:1003000006490020C8610648016941F00401016105
:10031000016941F04001016170470000100B0020AD
:1003200000200240064A0021D16106490A6942F0D4
:1003300002020A614861086940F0400008617047A4
:10034000100B002000200240044B0022DA61044A16
:10035000136943F00103136101807047100B002003
:100360000020024000201649CA6812F0100F154AFA
:1003700004D0D06940F00200D0611020CB6813F0A7
:10038000040F05D0D36943F00103D36140F00400AA
:10039000CB6913F0010F07D0D36943F00403D36195
:1003A000CA6922F00102CA61A0F58072013A01D047
:1003B000C8607047C86920F00100C861704700003C
:1003C00000200240100B002070B5044600F000FA37
:1003D0000646164DE86810F0010F0ED0B4F1FF3F4D
:1003E00007D024B100F0F4F9801BA04201D903200A
:1003F00070BDE86810F0010FF0D1E86810F0200F30
:1004000001D02020E860E86810F0100F07D1E869FB
:1004100010F0010F03D1E86810F0040F03D0FFF7CC
:10042000A1FF012070BD002070BD0000002002402F
:100430002DE9F04705460F464FF00109DFF89C8093
:1004400098F8180001280CD0012088F818002868B6
:10045000234E022808D04CF25030FFF7B5FFA8B168
:1004600036E00220BDE8F0874CF25030FFF7ACFFD9
:1004700028BB0120FFF744FF4CF25030FFF7A4FFE8
:100480008146306920F00400306121E04FF0FF30F8
:100490003860AC68E86804EB8020A04218D9204698
:1004A000FFF740FF4CF25030FFF78EFF8146306976
:1004B00020F0020030615FEA090001D03C6007E0F3
:1004C00004F58064E968A86800EB8120A042E6D8C2
:1004D000002088F818004846BDE8F087100B00207F
:1004E000002002400348016941F0800101610020C1
:1004F00070470000002002402DE9F047074688467B
:1005000015461E460024DFF87C9099F81800012853
:1005100008D0012089F818004CF25030FFF754FF42
:1005200018B129E00220BDE8F087012F1CD0022F6E
:100530001CD00427002F1FD9DFF84CA02201284629
:100540003146FFF761FE81B208EB4400FFF7FCFE85
:100550004CF25030FFF738FFDAF8101021F00101AB
:10056000CAF8101040B903E00127E3E70227E1E7EA
:10057000611CCCB2BC42E1D3002189F81810BDE85F
:10058000F0870000100B00200020024000200749E7
:100590000A6912F0800F08D0054A4A60054A4A608D
:1005A000096911F0800F00D001207047002002403F
:1005B00023016745AB89EFCD2DE9F84F4FF0000CD3
:1005C00000230A68002A7DD0DFF8DC810F27A8F11C
:1005D000040A08F10409AAF1040B012202FA0CF63C
:1005E0000A683240B2426ED1DFF8C0E14C68A4EB39
:1005F0000E0574452BD00DDC032C34D005DC34B350
:10060000012C19D0022C2FD11BE0112C16D0122C4A
:100610002AD119E0B5F5881F19D006DCB5F5803F61
:1006200015D0B5F5801F1FD111E0B5F5001F0ED014
:10063000B5F5041F18D10AE0CB6815E0CB681B1D87
:1006400012E0CB6808330FE0CB680C330CE08B680A
:1006500023B1012B04D00823466105E0042303E005
:100660000823066100E00023B2F5807F01D2054631
:1006700001E000F1040502D24FEA8C0403E0ACF182
:1006800008044FEA84042E6807FA04FE26EA0E06E0
:1006900003FA04F446EA04042C604C6814F0805F0A
:1006A00079D0434CA56945F00105A561A46904F022
:1006B000010400942CF0030404F1804404F5803418
:1006C000A66801E06EE066E04FEA8C754FEA1575AA
:1006D00007FA05FE26EA0E0EA0F18046B6F584362E
:1006E0001ED0A0F18046B6F586361BD0A0F180461C
:1006F000B6F5883618D0A0F18046B6F58A3615D002
:10070000042606FA05F545EA0E05A5604C6814F4C2
:10071000801F0DD0D8F800401443C8F800400CE00A
:100720000026EEE70126ECE70226EAE70326E8E7E3
:10073000D8F800409443C8F800404C6814F4001FF7
:1007400005D0D9F800401443C9F8004004E0D9F8B6
:1007500000409443C9F800404C6814F4003F05D0B1
:10076000DAF800401443CAF8004004E0DAF8004028
:100770009443CAF800404C6814F4803F05D0DBF87D
:1007800000402243CBF8002005E0DBF8004024EADB
:100790000202CBF800200CF1010C0A6832FA0CF2CC
:1007A0007FF41BAFBDE8F88F080401400000111072
:1007B000001002408068084201D0012070470020EC
:1007C0007047002A01D00161704709040161704738
:1007D00001488068704700009C0000200248816842
:1007E00002781144816070479C00002010B50748D2
:1007F000016841F010010160032000F08BF8002037
:1008000000F006F800F026F8002010BD002002409D
:1008100070B504460D4D4FF47A712878B1FBF0F0B5
:100820000B490968B1FBF0F001F0B4FD08B10120FB
:1008300070BD102C07D200222146501E00F036F861
:100840006C60002070BD012070BD00009C00002085
:10085000980000200C4808B5816941F001018161D0
:10086000816901F001010091C16941F08051C161CC
:10087000C069064900F080500090486820F0E060B0
:1008800040F00070486008BD0010024000000140C8
:1008900000280ADB00F01F01012202FA01F14009E1
:1008A000800000F1E020C0F80011704710B4184B30
:1008B0001B68C3F30223C3F1070CBCF1040F01D979
:1008C0004FF0040C1C1D072C01D2002300E0DB1E9E
:1008D000012404FA0CFCACF1010C0CEA0101994072
:1008E00004FA03F35B1E1A401143002806DB00F1F3
:1008F000E020090180F8001410BC704700F00F00E0
:1009000000F1E020090180F8141D10BC70470000C0
:100910000CED00E000F00700064A11684FF6FF03F7
:10092000194041EA002040F0FD7040F08060106006
:10093000704700000CED00E011F0800F07D001F0CF
:10094000070101EB810100EBC100283005E001EB5C
:10095000810100EBC10000F5B47099B232B10122FF
:1009600002730181190C418100207047002202733B
:10097000C180F9E7704701EB810200EBC202D0F8B9
:10098000EC02D26B03F0BEBC01EB810200EBC202B1
:10099000D0F8EC02D2F87C2103F01FBD70B50446FC
:1009A00011F0800F01F0070000EB800104EBC101A2
:1009B0004FF001024FF0000502D028314A7002E0EA
:1009C00001F5B4714D70087094F8A802012808D0A0
:1009D00084F8A822206804F013FA84F8A8520020B2
:1009E00070BD022070BD70B5044601F00F00626852
:1009F000904201D9012070BD11F0800F01F0070075
:100A000000EB800104EBC1014FF001024FF0000543
:100A100002D028314A7002E001F5B4714D708D703A
:100A2000087094F8A802012808D084F8A822206849
:100A300004F0C2FA84F8A852002070BD022070BDF4
:100A40002DE9F0470B78D1F818C0046812F4804FF4
:100A50004FF0000848F2800748F2C0054FF4806666
:100A60003DD0B4F850904FF0020A0AEBC30AD144CB
:100A700006EB4906A45BC4F30904A44504D3ACEB1C
:100A8000040CC1F818C001E0C1F81880D1F818C0F2
:100A9000BCF1000F0CD1D0F800C03CF8236026F068
:100AA000700626F4804686F400563E432CF82360F8
:100AB00012F0400F0BD00B78026832F823C02CF0F4
:100AC000700C2CF4E04C4CEA050C22F823C0ECB37B
:100AD0000A8949690068234604F0F7FD3EE0B4F84E
:100AE00050904FF0060A0AEBC30AD14406EB4906C0
:100AF000A45BC4F30904A44504D3ACEB040CC1F813
:100B000018C001E0C1F81880D1F818C0BCF1000F7E
:100B10000CD1D0F800C03CF8236026F0700626F413
:100B2000804686F400563E432CF8236012F0400FB6
:100B30000BD10B78026832F823C02CF0700C2CF427
:100B4000E04C4CEA050C22F823C000E006E02CB192
:100B50004A8949690068234604F0B7FD2046BDE88C
:100B6000F0872DE9F05F05460C4616462178A2690C
:100B7000286816F0400F4CF280074FF400434FF402
:100B8000806E4FF002094FF006084FF0000C00F0A5
:100B9000DE80B0F850B009EBC10AD3440EEB4B0B2A
:100BA00030F80B00C0F30900824202D9121AA26188
:100BB00001E0C4F818C0A26992B116F4804F09D0C0
:100BC0002A6832F8216026F0700626F4E0463E439B
:100BD00022F8216094F82410012957D000F094B92C
:100BE000607810B1012811D018E02868B0F85010D2
:100BF000084400EB4A0000F580600188C1F3090158
:100C00000180018841F40041018007E02868B0F8C4
:100C10005010084400EB4A00A0F800C4286861782E
:100C200011B1012913D01CE0B0F85010084421780C
:100C300008EBC10100EB410000F580600188C1F3C1
:100C400009010180018841F40041018009E0B0F808
:100C500050100844217808EBC10100EB4100A0F8D6
:100C600000C421782846FFF786FE16F4804F00F076
:100C70004B812178286830F8212022F0700222F47C
:100C8000E0423A4320F8212000F03EB96169014476
:100C90006161E1690144E1612269216A914203D302
:100CA0001046091A216205E049B184F824C00846BB
:100CB000C4F820C0617829B1012936D040E084F819
:100CC00024C0F7E72968B1F850201144227809EBD5
:100CD000C20201EB420101F580610A88C2F30902F8
:100CE0000A803E280CD9420910F01F0F00D1521E75
:100CF000B1F800C043EA82224CEA02020A801FE0F7
:100D000070B1420810F0010F00D0521CB1F800C0C1
:100D10004FF6FF7303EA82224CEA02020A800FE0D8
:100D20000A8842F400420A800AE02968B1F850209B
:100D30001144227809EBC20201EB4201A1F8000440
:100D400083B222896169286804F0E6FCDCE0B0F82F
:100D500050A008EBC10BDA440EEB4A0A30F80A0047
:100D6000C0F30900824202D3121AA26101E0C4F862
:100D700018C0A2691AB116F4804F58D061E06078AB
:100D800010B1012813D01CE02868B0F8502010449E
:100D900009EBC10100EB410000F580600188C1F35F
:100DA00009010180018841F40041018009E02868BF
:100DB000B0F85020104409EBC10100EB4100A0F84D
:100DC00000C42868617811B1012913D01CE0B0F883
:100DD00050100844217808EBC10100EB410000F5F8
:100DE00080600188C1F309010180018841F400415C
:100DF000018009E0B0F850100844217808EBC101E7
:100E000000EB4100A0F800C421782846FFF7B3FDAD
:100E100016F4804F78D12178286830F8212022F00C
:100E2000700222F4E0423A4320F821206CE02A6864
:100E300032F8216026F0700626F4E0463E4322F8A0
:100E4000216094F8241001295ED161690144616137
:100E5000E1690144E1612269216A914203D31046AC
:100E6000091A216205E051B10846C4F820C084F88F
:100E700024C0296862782AB1012A35D03EE084F87E
:100E800024C0F6E7B1F850201144227808EBC202E2
:100E900001EB420101F580610A88C2F309020A8070
:100EA0003E280CD9420910F01F0F00D1521EB1F894
:100EB00000C043EA82224CEA02020A801EE070B1BE
:100EC000420810F0010F00D0521CB1F800C04FF6DC
:100ED000FF7303EA82224CEA02020A800EE00A88CB
:100EE00042F400420A8009E0B1F85020114422780F
:100EF00008EBC20201EB4201A1F8000483B262894F
:100F00006169286804F008FC2178286830F82120FD
:100F100022F4415222F4804282F0100282F0200238
:100F200048F280031A4320F821200020BDE8F09FFA
:100F300070B5044611F0800F01F0070000EB80014E
:100F400004EBC1014FF0010C4FF0000503D0283134
:100F500081F801C002E001F5B4714D7008700A61BA
:100F6000CB70022B00D10D7194F8A802012808D093
:100F700084F8A8C2206803F0A7FD284684F8A85288
:100F800070BD022070BD10B501F0070C0CEB8C0198
:100F900000EBC10101F5B4714A618B610022CA61A5
:100FA0004A7081F800C0006804F072F8002010BD9B
:100FB00070B504460D46616805F00700884201D906
:100FC000012070BD15F0800F4FF000064FF00102B8
:100FD00006D000EB800104EBC10128314A7006E025
:100FE00005EB850104EBC10101F5B4714E708A7007
:100FF000087094F8A802012808D084F8A822206874
:1010000004F027F815F0070F02D006E0022070BDAB
:1010100004F52C71206803F0CDFF84F8A86200204D
:1010200070BD10B501F0070C0CEB8C0100EBC10199
:1010300028314A618B61012281F824200B62002350
:10104000CB614A7081F800C0006804F021F80020EC
:1010500010BD10B584B00446206804F033FB10F4D2
:10106000004F05D004B02046BDE8104002F07EB825
:1010700010F4806F10D02068B0F8441021F4806123
:10108000A0F84410204600F039F904B02046BDE82D
:101090001040002100F04DB910F4804F08D02068B6
:1010A000B0F8441021F48041A0F8441004B010BD01
:1010B00010F4005F08D02068B0F8441021F400510B
:1010C000A0F8441004B010BD10F4805F19D020685F
:1010D000B0F8401021F00401A0F840102068B0F8EA
:1010E000401021F00801A0F84010204600F019F946
:1010F0002068B0F8441021F48051A0F8441004B0E6
:1011000010BD10F4006F47D0002021686A4631F806
:10111000203022F81030401CC0B20828F7D3B1F8B4
:10112000400040F00100A1F840002068B0F84010F5
:1011300021F00101A0F840102068B0F8441011F42B
:10114000806FFAD0B0F8441021F48061A0F8441008
:101150000020236832F8101023F82010401CC0B281
:101160000828F6D32068B0F8401041F00801A0F834
:1011700040102068B0F8441021F40061A0F8441039
:101180002068B0F8401041F00401A0F8401020465B
:1011900000F004F904B010BD10F4007F0BD02068FB
:1011A000B0F8441021F40071A0F84410204600F07B
:1011B000BCF804B010BD10F4807FFAD02068B0F8FD
:1011C000441021F48071A0F8441004B010BDF0B5B3
:1011D00085B00446002C04D094F8A902002518B16B
:1011E00007E005B00120F0BD84F8A852204600F0C9
:1011F00067F8032084F8A902206803F0D3FE04F105
:1012000010000FC88DE80F00206A049094E80F00CA
:1012100003F0F4FD022720B184F8A97205B0012083
:10122000F0BD0021206804F06EFA002160680126FC
:10123000002811D901EB810004EBC00080F829607F
:1012400080F8281080F82B508563C5630564481C1E
:10125000C1B260688842EDD800216068002814D9C6
:1012600001EB810004EBC00080F8695180F868113F
:1012700080F86B51C0F87851C0F87C51C0F88051AB
:10128000481CC1B260688842EAD804F110000FC857
:101290008DE80F00206A049094E80F0003F076FEBA
:1012A00020B184F8A97205B00120F0BD84F8245063
:1012B00084F8A962206803F067FE05B00020F0BD45
:1012C00008B500680B49884212D10B48C16941F446
:1012D0000001C161C069002200F4000000901146C5
:1012E0001420FFF7E3FABDE808401420FFF7D0BA56
:1012F00008BD0000005C00400010024070B50446CC
:1013000080680125022801D0FEF7F7FF2946D4F8AE
:10131000EC0203F03DF9D4F8EC02BDE8704003F0B4
:10132000F8B8D0F8EC0203F01DB9D0F8EC0203F0E5
:1013300023B910B5044694F8A80201280BD0012067
:1013400084F8A80284F82410206804F0DEF9002054
:1013500084F8A80210BD022010BDD0F8EC2200F5E0
:101360002C71104603F020B910B5044694F8A80279
:10137000012810D0012084F8A802206804F093F915
:1013800001212046FFF7F6FA206803F0FBFD00205C
:1013900084F8A80210BD022010BD000010B504465C
:1013A000D0F8EC0203F041F9A069002804D003480A
:1013B000016841F00601016010BD000010ED00E081
:1013C000014901200862704700000E4210B5014635
:1013D00000202A4C012925D0022945D0102920D1EE
:1013E0006168226812F0807F1BD02548C1F38342D8
:1013F000805C11F4803F09D06168224AC1F340410A
:10140000515C214AB2FBF1F1484301E01F494843D6
:10141000616811F4800F04D11D494000A1FB001048
:10142000400810BD216A01F44072B2F5807F05D1F9
:1014300011F0020F02D04FF4004010BDB2F5007F52
:1014400006D1626A12F0020F02D049F6404010BD88
:101450004FF4407232EA0101F9D1216811F4003FE2
:10146000F5D04FF2244010BD00F082F96168C1F35D
:101470008131491C4900B0FBF1F010BD0010024061
:101480003F7000083D70000800127A0000093D001E
:10149000ABAAAAAA2DE9F8430446DFF81C812078FC
:1014A00010F0010F6CD00027D8F81C0010F0805FFE
:1014B0000BD1D8F81C0040F08050C8F81C00D8F8B8
:1014C0001C0000F08050009001273C4D286810F46B
:1014D000807F16D1286840F480702860FFF778F983
:1014E0000646286810F4807F0BD1FFF771F9801B46
:1014F000642802D90320BDE8F883286810F4807FAF
:10150000F3D0D8F8200000F4407048B3A18801F46B
:101510004071814224D0D8F8200020F4407028493E
:1015200001220A6000220A60C8F8200010F0010FB2
:1015300016D0FFF74DF90546D8F8200010F0020F3D
:101540000ED141F28836FFF743F9401BB04202D971
:101550000320BDE8F883D8F8200010F0020FF2D085
:10156000D8F82000616820F440700843C8F82000D3
:10157000012F05D1D8F81C0020F08050C8F81C00BD
:10158000207810F0020F07D0D8F80400A16820F4EA
:1015900040400843C8F80400207810F0100F07D02E
:1015A000D8F80400E16820F480000843C8F804007B
:1015B0000020BDE8F88300000010024000700040E9
:1015C000400442422DE9F04704460D46002C17D056
:1015D000DFF85C81D8F8000000F00700A84212D2C2
:1015E000D8F8000020F007002843C8F80000D8F819
:1015F000000000F00700A84205D00120BDE8F087F8
:101600000120BDE8F08720684A4E10F0020F14D088
:1016100010F0040F03D0706840F4E0607060207830
:1016200010F0080F03D0706840F46050706070686C
:1016300020F0F001A06808437060207810F0010FDE
:101640003AD06068012806D002280BD0316811F02A
:10165000020F27D00AE0316811F4003F06D10120C3
:10166000BDE8F087316811F0007F18D0716821F073
:10167000030108437060FFF7ABF8074670686168C4
:1016800000F00C00B0EB810F16D041F28839FFF763
:101690009FF8C01B484508D90320BDE8F08701200A
:1016A000BDE8F0870120BDE8F0877068616800F050
:1016B0000C00B0EB810FEAD1D8F8000000F0070071
:1016C000A8420FD9D8F8000020F007002843C8F836
:1016D0000000D8F8000000F00700A84202D0012066
:1016E000BDE8F087207810F0040F05D07068E1683D
:1016F00020F4E06008437060207810F0080F06D0F6
:101700007068216920F4605040EAC100706000F008
:101710003FF87168084AC1F30311515CC84007499A
:10172000086007480068FFF773F80020BDE8F087FD
:1017300000200240001002401370000898000020B2
:10174000A0000020014800687047000098000020B9
:1017500000B5FFF7F7FF04494968044AC1F30221C5
:10176000515CC84000BD000000100240237000081A
:1017700000B5FFF7E7FF04494968044AC1F3C221F5
:10178000515CC84000BD00000010024023700008FA
:101790000E4B59680E4801F00C02042A11D0082A99
:1017A0000FD10C48C1F38342805C11F4803F09D013
:1017B0005968094AC1F34041515C054A5043B0FBA6
:1017C000F1F070470549484370470000001002409F
:1017D00000127A002D7000082B70000800093D00EF
:1017E0002DE9F84F0446002C0FD02078F84D10F06A
:1017F000010F6CD0686800F00C0004280CD06868F9
:1018000000F00C00082803D010E00120BDE8F88F9C
:10181000686810F4803F09D0286810F4003F56D063
:101820006068002853D10120BDE8F88F6068B0F5EA
:10183000803F15D0C8B1B0F5A02F1FD0286820F484
:1018400080302860286820F480202860606858B3C1
:10185000FEF7BEFF0646286810F4003F17D036E0BA
:10186000286840F480302860F0E7286820F4803051
:101870002860286820F480202860E7E7286840F482
:1018800080202860286840F480302860DEE7FEF77A
:101890009FFF801B642802D90320BDE8F88F2868C9
:1018A00010F4003FF3D012E0FEF792FF06462868DE
:1018B00010F4003F0BD0FEF78BFF801B642802D989
:1018C0000320BDE8F88F286810F4003FF3D120789A
:1018D000C04F10F0020F4FF0010B4FF0000854D032
:1018E000686810F00C0F14D0686800F00C0008282D
:1018F00003D1686810F4803F0BD0206978B3C7F833
:1019000000B0FEF765FF0646286810F0020F12D0FF
:101910001DE0286810F0020F05D02069012802D0D0
:101920000120BDE8F88F2868616920F0F80040EADE
:10193000C100286029E0FEF74BFF801B022802D976
:101940000320BDE8F88F286810F0020FF3D0286854
:10195000616920F0F80040EAC100286015E0FFE767
:10196000C7F80080FEF734FF0646286810F0020F23
:101970000BD0FEF72DFF801B022802D90320BDE803
:10198000F88F286810F0020FF3D1207810F0080FBC
:1019900030D09148A169C1B1C0F800B0FEF718FF7E
:1019A0000646686A10F0020F0BD1FEF711FF801B8C
:1019B000022802D90320BDE8F88F686A10F0020FF0
:1019C000F3D0012001F0DAFD14E0C0F80080FEF74A
:1019D000FFFE0646686A10F0020F0BD0FEF7F8FE15
:1019E000801B022802D90320BDE8F88F686A10F036
:1019F000020FF3D1207810F0040F6FD00026E869B1
:101A000010F0805F08D1E86940F08050E861E86933
:101A100000F0805000900126DFF8C0A1DAF8000045
:101A200010F4807F1BD1DAF8000040F48070CAF80F
:101A30000000FEF7CDFE8146DAF8000010F4807F4A
:101A40000DD1FEF7C5FEA0EB0900642802D90320E2
:101A5000BDE8F88FDAF8000010F4807FF1D0E0687C
:101A6000012816D0D0B1052821D0286A20F0010025
:101A70002862286A20F004002862E06841F2883A6F
:101A800068B3FEF7A5FE8146286A10F0020F17D052
:101A90003AE0286A40F001002862EEE7286A20F068
:101AA00001002862286A20F004002862E5E7286A1D
:101AB00040F004002862286A40F001002862DCE758
:101AC000FEF786FEA0EB0900504502D90320BDE8D1
:101AD000F88F286A10F0020FF2D015E01AE0FFE745
:101AE000FEF776FE8146286A10F0020F0CD0FEF752
:101AF0006FFEA0EB0900504502D90320BDE8F88F26
:101B0000286A10F0020FF2D1012E03D1E86920F00B
:101B10008050E861E069E8B3696801F00C010829C8
:101B20005ED0022810D0C7F86080FEF751FE044650
:101B3000286810F0007F66D0FEF74AFE001B0228DE
:101B400041D90320BDE8F88FC7F86080FEF740FE5A
:101B50000646286810F0007F0BD0FEF739FE801B88
:101B6000022802D90320BDE8F88F286810F0007F12
:101B7000F3D1206AB0F5803F05D16868A16820F4F0
:101B8000003008436860616A206A0843696821F48C
:101B9000741100E037E008436860C7F860B0FEF7F2
:101BA00017FE0446286810F0007F2CD1FEF710FEC7
:101BB000001B022802D90320BDE8F88F286810F026
:101BC000007FF3D01FE0286810F0007FB4D11AE046
:101BD0000010024000004242800442420070004077
:101BE00001280DD06868226A00F48031914204D146
:101BF000616A00F47010884205D00120BDE8F88FBA
:101C00000120BDE8F88F0020BDE8F88F70B50446CC
:101C1000002C03D0607C002610B105E0012070BDCF
:101C20002674204600F04AF802206074204600F036
:101C300030F9042510B16574012070BD204601F013
:101C4000B8FC10B16574012070BD2068416821F0B6
:101C500007014160A06820B11648016821F0010128
:101C6000016015480168A26821F4607111430160A8
:101C70006068B0F1FF3F04D10120FFF7A7FB70B10E
:101C8000401E2268C0F303419160216880B2C860A1
:101C9000204601F0ACFC28B16574012070BD65746C
:101CA000012070BDE67301206073A0736074002092
:101CB00070BD0000306C00402C6C004008B500681E
:101CC000084988420DD1FFF77BFB0748C16941F005
:101CD0000061C161C069054900F000600090012009
:101CE000086008BD00280040001002403C04424249
:101CF0002DE9F04104460D46002C3DD0002D3BD08F
:101D0000207C01283BD00126267402206074002A22
:101D100038D0E87801F044FCE073687801F040FCCA
:101D20006073A87801F03CFCA073A27B617BE07B30
:101D300001F092FC20732870204601F07DFC0146E2
:101D40004FF46160B1FBF0F00027182837D91E4A24
:101D5000A2FB00201D4A0009504301EBC015294693
:101D6000204601F0D4FC4FF0040890B184F81180B3
:101D700027740120BDE8F0810120BDE8F081022038
:101D8000BDE8F081E878E07368786073A878A073A4
:101D9000CBE7204601F049FCB0F1FF3F0FD0A8424D
:101DA0000DD200F5803101F5A341204601F098FCE9
:101DB00028B184F8118027740120BDE8F081667491
:101DC00027740020BDE8F081ABAAAAAA5DFDFFFF41
:101DD0002DE9F04104460D46002C28D03DB3207C6F
:101DE000012827D001262674022060742AB328789F
:101DF00001F0D6FB4FF4616100FB01F7687801F058
:101E0000CFFBC0EB001007EB8007A87801F0C8FB00
:101E10003D182946204601F07AFC00274FF00408BF
:101E2000B8B184F8118027740120BDE8F081012049
:101E3000BDE8F0810220BDE8F08128784FF46161AF
:101E400041436878C0EB001001EB8000A978451889
:101E5000DFE72068416821F005014160204601F07C
:101E6000E4FBB0F1FF3F0FD0A8420DD200F5803166
:101E700001F5A341204601F033FC28B184F811801C
:101E800027740120BDE8F081667427740020BDE846
:101E9000F08170B50446002C0DD02068416821F017
:101EA00008014160FEF794FC05462068406810F088
:101EB000080F02D00EE0012070BDFEF789FC401B28
:101EC000B0F57A7F01D9032070BD2068406810F01A
:101ED000080FF2D0002070BD70B50446002C09D068
:101EE000606A002540B125616561A56294F85100E2
:101EF00040B10CE0012070BD6068B0F5827FF4D085
:101F0000E561F2E784F85050204600F03FF80220E7
:101F100084F851002068016821F040010160A08828
:101F2000218900F4827001F404410843A18901F47D
:101F300000610843217C01F002010843217D01F08A
:101F400001010843218B01F400710843217F01F056
:101F50003801084394F8201001F080010843218DD6
:101F600001F40051084321680860A169042000EAD7
:101F70001140216848602068C16921F40061C16195
:101F80006565012084F85100002070BD30B585B032
:101F90000024009401940294039400681449884238
:101FA00023D11448816941F480518161816901F430
:101FB00080510491816941F00401816180690E4D75
:101FC00000F004000490A020009002200190032063
:101FD000039069462846FEF7EFFA4020CDE9000459
:101FE000694628460294FEF7E7FA05B030BD0000C6
:101FF0000030014000100240000801402DE9F84F78
:1020000004468A4691461D46002694F85100012850
:1020100001D00226A2E060684FF0040BB0F5827F89
:1020200001D1A06820B394F8500001282BD04FF0C4
:10203000010884F85080FEF7CBFB0746BAF1000F89
:1020400024D0B9F1000F21D084F851B00020606590
:10205000C4F838A0A4F83C90A4F83E902063A08671
:10206000E08620646064A068B0F5004F10D019E0ED
:1020700084F851B04B46524651462046009500F038
:1020800073F8BDE8F88F0220BDE8F88F012665E0FF
:102090002068016821F0400101602068016821F496
:1020A000804101602068016811F0400F03D1016890
:1020B00041F040010160E06880B1E08F58B32068D2
:1020C000816811F0010F2BD0C068A16B0880A06B54
:1020D000801CA063E08F401EE0872AE0E08FD0B133
:1020E0002068816811F0010F09D0007BA16B087096
:1020F000A06B401CA063E08F401EE08708E0FEF765
:1021000067FBC01BA84202D3B5F1FF3F04D11DB14C
:10211000E08F0028E4D10FE0032684F851801DE011
:10212000FEF756FBC01BA84202D3B5F1FF3F0FD10B
:1021300075B1E08F0028C2D13A462946204601F009
:10214000FDFA08B120206065606D28B1012605E028
:10215000032684F8518001E084F85180002084F83F
:1021600050003046BDE8F88F2DE9F84F04460A9E2E
:102170008A46934698460125002794F85000012886
:102180000ED0012084F85000FEF722FB814694F81F
:102190005100616801280DD0B1F5827F07D102E0BE
:1021A0000220BDE8F88FA16809B9042802D00227EF
:1021B00000F0DBB8BAF1000F22D0BBF1000F1FD046
:1021C0005FEA08001CD094F85100042802D00520D2
:1021D00084F8510000206065C4F838B0A4F83E804F
:1021E000A4F83C80C4F830A0A4F83680A4F8348069
:1021F000206460642068016811F0400F02D005E09F
:102200000127B2E0016841F040010160E068B0F5EB
:10221000006F06D0606800284CD0B8F1010F49D09B
:1022200081E0606810B1B8F1010F3CD1206B2168EA
:102230000088C860206B801C2063E08E401EE08612
:1022400031E02068816811F0020F0DD0E18E59B1A4
:10225000012D09D1216B0988C160206B801C20638E
:10226000E08E401EE08600252068816811F0010F95
:102270000BD0E18F49B1C068A16B0880A06B801CB6
:10228000A063E08F401EE0870125FEF7A1FAA0EBD6
:102290000900B04207D3B6F1FF3F04D00327012065
:1022A00084F8510061E0E08E0028CAD1E08F002858
:1022B000C7D13EE0206B216800780873206B401C7A
:1022C0002063E08E401EE0862DE02068816811F0DA
:1022D000020F0DD0E18E59B1012D09D1216B097882
:1022E0000173206B401C2063E08E401EE0860025B9
:1022F0002068816811F0010F0BD0E18F49B1C068EF
:10230000A16B0870A06B401CA063E08F401EE087AB
:102310000125FEF75DFAA0EB0900B04202D3B6F149
:10232000FF3F10D17EB1E08E0028CED1E08F002893
:10233000CBD14A463146204601F038FA40B1012758
:102340002020606511E00327012084F851000CE093
:10235000A06818B92068C16880680090606D08B1F5
:10236000012702E0012084F85100002084F8500089
:102370003846BDE8F88F4FF0E021042804D0086902
:1023800020F0040008617047086940F0040008610B
:1023900070470000401EB0F1807F01D301207047DC
:1023A0004FF0E0214861044AF0201070002088615D
:1023B000072008610020704723ED00E07047704758
:1023C00090F83C20012A2CD0012280F83C20CA68D9
:1023D0000023D1F808C022F4407242EA0C02D1F87E
:1023E00004C022F4806242EA0C02D1F800C022F458
:1023F000006242EA0C02D1F810C022F4805242EA94
:102400000C02D1F814C022F4005242EA0C02C9694D
:1024100022F4804211430268516480F83C3000206D
:1024200070470220704730B490F83C20012A30D029
:10243000012480F83C40022280F83D200268D2F856
:1024400004C093682CF0700C0D6845EA0C0CC2F8BF
:1024500004C00268A2F1804CBCF5963C0CD0B2F1ED
:10246000804F09D0A2F1804CBCF5806C04D0A2F161
:10247000804CBCF5006C04D123F0800349681943FB
:10248000916080F83D40002180F83C1030BC002075
:10249000704730BC0220704710B50446002C03D0B2
:1024A00094F83D0010B107E0012010BD002084F831
:1024B0003C00204600F01EF8022084F83D00211D5B
:1024C000206801F04DFA012084F8460084F83E00AF
:1024D00084F83F0084F8400084F8410084F842000A
:1024E00084F8430084F8440084F8450084F83D00F3
:1024F000002010BD08B50068104A1149904208D16B
:10250000886940F400608861886900F40060009088
:1025100008BD0C4A9042FBD1C86940F00400C86174
:10252000C869002200F00400009011461E20FEF74A
:10253000BDF9BDE808401E20FEF7AAB9002C0140F5
:10254000001002400008004090F83D10012901D021
:1025500001207047022180F83D100168CA6842F0EE
:102560000102CA600068A0F18041B1F5963112D035
:10257000B0F1804F0FD0A0F18041B1F580610AD059
:10258000A0F18041B1F5006105D0016841F0010181
:10259000016000207047816801F007010629F8D02A
:1025A000016841F001010160F3E770B504460025C0
:1025B00094F83C00012818D0012684F83C600220E1
:1025C00084F83D002068826822F0770222F47F427E
:1025D00082600868502839D00EDC202854D006DCF0
:1025E000002851D0102811D14EE0022070BD3028B3
:1025F0004AD040280AD13DE0602831D070280DD063
:10260000B0F5805F03D0B0F5005F13D0012584F8EA
:102610003D60002084F83C00284670BDCB684A68C5
:102620008968206801F0E7F92068816841F0770146
:102630008160ECE7CB684A688968206801F0DBF9C3
:102640002068816841F480418160E0E7CA68496898
:10265000206801F0A6FA5021206801F0D7F9D6E7EA
:10266000CA684968206801F0AFFA6021206801F06B
:10267000CDF9CCE7CA684968206801F092FA402198
:10268000206801F0C3F9C2E722680146104601F054
:10269000BDF9BCE770B504460D46002C03D094F894
:1026A0003D0010B107E0012070BD002084F83C001F
:1026B000204600F057F8022084F83D002068816829
:1026C00021F0070121F480418160211D206801F083
:1026D00047F9206881688269036AD5F800C04CEA2E
:1026E000010122F0030222F44072AE69D5F808C05D
:1026F00042EA06224CEA020222F00C0222F4406274
:1027000022F0F00222F47042EE69D5F80CC042EAE1
:1027100006224CEA0202D5F810C02E6A4FEA0C1CC1
:102720004CEA063C4CEA020223F02203D5F804C02E
:102730006D6943EA05134CEA0303816020688261F6
:1027400020680362012084F8460084F83E0084F883
:102750003F0084F8420084F8430084F83D000020E4
:1027600070BD000000B585B000210091019102917B
:1027700003910068B0F1804F20D11148C16941F048
:102780000101C161C16901F001010491816941F058
:10279000040181618069694600F00400049003200F
:1027A0000090012002900748FDF706FF0022114625
:1027B0001C20FEF77BF81C20FEF76AF805B000BD70
:1027C000001002400008014030B5044694F83E0075
:1027D00094F83F2094F8423094F843C00225002931
:1027E00004D004290DD001281ED116E0012801D102
:1027F000012B01D0012030BD84F83E5084F84250B6
:102800001CE0012A02D1BCF1010F01D0012030BD32
:1028100084F83F5084F8435010E0012A04D1012B82
:1028200002D1BCF1010F01D0012030BD84F83E502F
:1028300084F83F5084F8425084F8435091B1042901
:1028400016D001220021206801F0C6F801220421DF
:10285000206801F0C1F82068016841F001010160C1
:10286000002030BD01220021206801F0B5F8F2E718
:1028700001220421206801F0AFF8ECE7704770B541
:102880000446206801694FF0000511F0020F17D0CF
:10289000C16811F0020F13D0E91E016101202077F9
:1028A0002068806910F0030F03D02046FFF7E6FF91
:1028B00005E0204600F0DCF8204600F075F92577A9
:1028C0002068016911F0040F18D0C16811F0040FDD
:1028D00014D06FF004010161022020772068806924
:1028E00010F4407F03D02046FFF7C8FF05E02046E4
:1028F00000F0BEF8204600F057F9257720680169FE
:1029000011F0080F18D0C16811F0080F14D06FF043
:1029100008010161042020772068C06910F0030FCE
:1029200003D02046FFF7AAFF05E0204600F0A0F8FC
:10293000204600F039F925772068016911F0100F61
:1029400018D0C16811F0100F14D06FF010010161A0
:10295000082020772068C06910F4407F03D020460B
:10296000FFF78CFF05E0204600F082F8204600F0DB
:102970001BF925772068016911F0010F09D0C168A2
:1029800011F0010F05D06FF001010161204600F048
:1029900065F92068016911F0800F09D0C16811F054
:1029A000800F05D06FF0800101612046FFF706FD22
:1029B0002068016911F0400F09D0C16811F0400F83
:1029C00005D06FF040010161204600F048F9206811
:1029D000016911F0200F0BD0C16811F0200F07D052
:1029E0006FF0200101612046BDE87040FFF7E7BCB1
:1029F00070BD000000B585B00021009101910291E9
:102A000003910068154B1649022298420FD188693C
:102A100040F0040088618869694600F00400049071
:102A20004FF4E060CDE900020E48039211E00E4B36
:102A3000984210D1886940F0080088618869694629
:102A400000F0080004904FF4E070CDE90002074860
:102A50000392FDF7B1FD05B000BD0000002C014060
:102A6000001002400008014000080040000C014036
:102A7000704770B504460D46002694F83C000128C6
:102A80000FD0012084F83C006AB1042A1FD0082A24
:102A900032D00C2A44D00126002084F83C00304675
:102AA00070BD022070BD2946206800F0B7FF206885
:102AB000816941F0080181612068816921F0040188
:102AC0008161206881692A6911438161E4E72946AF
:102AD000206800F0D7FF2068816941F400618161BE
:102AE0002068816921F480618161206881692A6997
:102AF00041EA02218161CFE72946206800F0F6FF14
:102B00002068C16941F00801C1612068C16921F0F4
:102B10000401C1612068C1692A691143C161BBE731
:102B20002946206801F016F82068C16941F4006167
:102B3000C1612068C16921F48061C1612068C169F7
:102B40002A6941EA0221C161A6E710B50446002CBA
:102B500003D094F83D0010B107E0012010BD002023
:102B600084F83C00204600F01EF8022084F83D0066
:102B7000211D206800F0F4FE012084F8460084F84E
:102B80003E0084F83F0084F8400084F8410084F857
:102B9000420084F8430084F8440084F8450084F837
:102BA0003D00002010BD70477047000010B504467E
:102BB000002909D004290AD008290BD094F8410033
:102BC00001280AD0012010BD94F83E00F8E794F8DF
:102BD0003F00F5E794F84000F2E7022089B30429AA
:102BE00033D0082934D084F841000122206800F055
:102BF000F3FE19492068884203D1426C42F4004236
:102C000042642068884212D0B0F1804F0FD0A0F10A
:102C10008041B1F580610AD0A0F18041B1F5006139
:102C200005D0016841F001010160002010BD8168FC
:102C300001F007010629F8D0016841F001010160A7
:102C4000F3E7FFE784F83E00CFE784F83F00CCE7E6
:102C500084F84000C9E70000002C0140704770472D
:102C600070B50446002C04D094F84100002510B142
:102C700006E0012070BD84F84050204600F024F8A2
:102C8000242084F841002068C16821F40051C1600B
:102C9000204600F0ADFF2068016921F490410161F8
:102CA0002068416921F02A0141612068C16841F42E
:102CB0000051C1606564202084F8410084F842001E
:102CC0006563002070BD000030B585B0002400941D
:102CD00001940294039400681449884224D1144852
:102CE000C16941F48021C161C16901F4802104916D
:102CF000816941F00801816180690E4D00F0080092
:102D000004904FF480600090022001900320039013
:102D100069462846FDF750FCE814CDE900046946F1
:102D200028460294FDF748FC05B030BD004800403D
:102D300000100240000C0140FEE7F0B500230A2419
:102D4000302537261F4610E0B4EB107F02D905EB83
:102D5000107C01E006EB107C01F813C001EB430C82
:102D600000015B1C8CF80170DBB29342ECD3F0BD28
:102D700070B586B00024284800940194029403940E
:102D8000816941F010018161816901F010010491B4
:102D9000816941F020018161816901F02001049184
:102DA000816941F004018161816901F004010491AC
:102DB000816941F0080181618069184E00F00800C6
:102DC0000490002210213046FDF7FBFC4FF46040D8
:102DD00001258DE8310069461148FDF7EDFB08201B
:102DE000CDE90004694630460294FDF7E5FB10206A
:102DF000CDE900050220CDE9024069463046FDF7E5
:102E0000DBFB4FF23800CDE9000469460548029427
:102E1000FDF7D2FB06B070BD001002400008014073
:102E200000100140000C01401CB50024174800941C
:102E3000154901940160611EC0E90114FEF7E6FE28
:102E400008B1FDF75AFA8DF800408DF801408DF871
:102E50000240012269460D48FEF7BAFF08B1FDF7AE
:102E60004CFA01208DF804008DF805008DF806005D
:102E700002468DF8074001A90448FEF739FF0028F3
:102E800001D0FDF73AFA1CBD00280040BC0100202B
:102E9000104810B50E4901604FF482714160002165
:102EA00002228160C0E90312012242615202826162
:102EB0000822C0E90721416281620A21C162FFF74D
:102EC0000BF8002803D0BDE81040FDF716BA10BD7E
:102ED00000300140D001002010B596B000240F94BE
:102EE00010941194129413941C2168461494FDF7C5
:102EF0009EF9202107A8FDF79AF931482F49016072
:102F00004721C0E9011440F2E731C0E903148021F0
:102F1000C0E90541FFF7C0FA08B1FDF7EEF94FF43B
:102F200080500F900FA92648FFF73FFB08B1FDF72F
:102F3000E4F92348FFF709FE08B1FDF7DEF9139421
:102F400013A91F481494FFF76EFA08B1FDF7D5F9DD
:102F50006020CDE9000402940394049405940022B7
:102F6000694617480694FFF784FD08B1FDF7C5F9D7
:102F7000042269461248FFF77CFD08B1FDF7BDF950
:102F8000082269460E48FFF774FD08B1FDF7B5F950
:102F90000794089409944FF400500A94CDE90B402B
:102FA00007A907480E94FFF70BFA08B1FDF7A5F93A
:102FB0000348FFF71FFD16B010BD0000002C0140B4
:102FC0002802002010B58CB024216846FDF72FF9A7
:102FD0000024174809944FF080410A94C0E9001476
:102FE0004FF6FF71C0E90241802104618161032035
:102FF0000222CDE9000201200F21CDE90204CDE932
:1030000004120690CDE9074169460948FFF742FBE3
:1030100008B1FDF772F9099409A905480A94FFF768
:1030200002FA002801D0FDF768F90CB010BD0000CD
:103030007002002010B58EB0002407940894099403
:103040000A940B941C2168460C94FDF7F0F827486D
:10305000254901604721C0E9011440F2E731C0E988
:10306000031480218161FFF717FA08B1FDF745F9D4
:103070004FF48050079007A91C48FFF796FA08B153
:10308000FDF73BF91948FFF760FD08B1FDF735F989
:103090000B940BA915480C94FFF7C5F908B1FDF77F
:1030A0002CF96020CDE900040294002269460F4803
:1030B0000494FFF7DEFC08B1FDF71FF9042269460E
:1030C0000A48FFF7D6FC08B1FDF717F90822694650
:1030D0000648FFF7CEFC08B1FDF70FF90348FFF7EC
:1030E00089FC0EB010BD000000080040B8020020AE
:1030F0000C4810B50A4901604FF416514160002197
:1031000081600C22C160C0E904128161C161FFF7D6
:10311000A7FD002803D0BDE81040FDF7EEB810BDB4
:10312000004800400003002010B500220B490C4865
:1031300001F0C0F808B1FDF7E0F80A49084801F0CD
:103140009AFA08B1FDF7D9F8054801F045FB0028C7
:1031500003D0BDE81040FDF7D0B810BD48000020F6
:1031600048030020AC000020FEE7FEE72DE9F05FF9
:1031700004462068B0F8440010F4004F00F081814C
:103180004FF006084FF002094FF480672068B0F84E
:10319000441001F00F06002E47D030F826A01AF494
:1031A000004F00F0498130F8261021F0700121F421
:1031B000704141F0800120F8261006EB860004EBF8
:1031C000C00000F5B475287B002800F0F380E87893
:1031D000022800F004812978206830F8212022F0AC
:1031E000700222F4E04248F2C0031A4320F8212082
:1031F0002978206830F8212012F4804F00F0F68002
:10320000B0F8502009EBC101114407EB4101415ACC
:10321000C1F3090BBBF1000F00F0FA802A895B466D
:10322000696902F052FA00F0F3B811F0100F25D0DE
:1032300004F5B475018811F4006F4FD0B0F8501048
:103240002A7808EBC202114407EB4101405AC0F34F
:103250000903EB61EA8804F52C71206802F035FA65
:103260002068018821F0700121F4704141F0800153
:1032700001802046FEF771F800F0FCB8018821F0CB
:10328000F00121F4E04141F40041018004F12805FE
:103290002068B0F850102A7809EBC202114407EBFD
:1032A0004101405AC0F30900E86169690844686156
:1032B00000212046FDF75FFB94F82400002873D01E
:1032C000A869002870D194F82400216840F080009B
:1032D000A1F84C00002084F82400CBE011F4004F4A
:1032E00062D0018821F0700121F4704141F0800129
:1032F00001802068B0F850102A7808EBC20211440F
:1033000007EB4101405AC0F30900E86170B16969F7
:1033100061B183B2EA88206802F0D7F9E969686987
:103320000844686100212046FDF72EFB20680188D3
:1033300011F4006F38D14FF4405232EA010133D01A
:10334000B0F85010084400F20C400188C1F30901A4
:10335000018029693E290CD94A0911F01F0F00D1BB
:10336000521E03884FF4004141EA82211943018033
:103370000CE0D1B14A0811F0010F00D0521C0388B3
:103380004FF6FF7101EA822119430180206801880C
:1033900021F0700121F4804181F4805181F40051C9
:1033A00048F280021143018064E0018841F4004149
:1033B0000180EBE72068B0F850102A7808EBC202D1
:1033C000114407EB4101415AC1F3090BBBF1000F56
:1033D0001ED0EA885B46696902F077F918E0524628
:1033E00029462046FDF72CFB834611E0B0F850201B
:1033F00008EBC101114407EB4101415AC1F3090B2C
:10340000BBF1000F04D06A895B46696902F05DF97F
:10341000E8695844E861686958446861A86910B16E
:103420002869584504D929782046FDF7ADFA03E00C
:103430002946206801F02CFE1AF0800F1AD006EB06
:10344000860004EBC00000F12801206830F8262037
:1034500022F0F00222F4E04242F4004220F826205A
:10346000C878012810D01AF4807F61D052462046D7
:10347000FDF777FB2068B0F8440010F4004F7FF4AC
:1034800085AE0020BDE8F09F00238B61087B30B340
:103490001AF0400F24D0487810B1012814D042E02F
:1034A0002068B0F8502010440A7809EBC20200EB03
:1034B000420000F580600288C2F30902028002889F
:1034C00042F4004202802EE02068B0F85020104400
:1034D0000A7809EBC20200EB4200A0F8003422E0B7
:1034E00020684A7812B1012A13D01CE0B0F85020AD
:1034F00010440A7808EBC20200EB420000F580603D
:103500000288C2F309020280028842F4004202806B
:1035100009E0B0F8502010440A7808EBC20200EB32
:103520004200A0F8003409782046FDF724FAA1E70C
:103530002068B0F850200B7809EBC3031A4407EB5E
:103540004202805AC0F309008A69824202D9121AE3
:103550008A6101E000228A618A694AB14A690244AB
:103560004A61CA691044C861206801F091FD81E791
:1035700009782046FDF7FFF97CE7704781B00749DD
:103580004FF4FA520968B1FBF2F14843009000BFD2
:103590000098411E0091FAD201B0704798000020B7
:1035A000010901EB8101490000F00F000844C0B29D
:1035B000704770B50446FDF70BF905462068406872
:1035C00010F0200F0CD1FDF703F9401BB0F57A7F06
:1035D00001D9032070BD2068406810F0200FF2D0A0
:1035E0002068416841F010014160002070BD70B555
:1035F00004462068416821F010014160FDF7E8F8B9
:1036000005462068406810F0200F0CD1FDF7E0F867
:10361000401BB0F57A7F01D9032070BD2068406857
:1036200010F0200FF2D0002070BD0068016A406ADF
:1036300080B240EA014070470068816989B2C2697E
:1036400093B2826992B2914203D0C06962F31F4083
:10365000704743EA0140704710B400F5FA63C1EBCC
:10366000C10C0CEB011C40F639640CFB04FC02EBB2
:10367000DC3218461044184ADFF860C04FF4C874B2
:10368000032913D2591E00EB9103A2FB0120B1FBC9
:10369000F4F1A3EB50100844001D62460021E0FB4A
:1036A0000C214908A1EBC101084411E000EB930192
:1036B000A2FB0320A1EB5010B3FBF4F10844074A2E
:1036C000801C0021E0FB0C214908A1EBC10108444A
:1036D00010BCC0B2704700001F85EB5149922449CD
:1036E00070B505460E4600242846FFF762FF08B174
:1036F00001240AE02968300C08622968B0B24862E7
:103700002846FFF774FF00B10124204670BD70B554
:1037100005460E4600242846FFF74BFF08B101245A
:103720000AE02968300C88612968B0B2C86128466F
:10373000FFF75DFF00B10124204670BD38B5044697
:103740006068B0F5827F0BD1A068B0F5004F02D061
:10375000B0F5806F04D12068036823F04003036054
:103760006068B0F5827F03D1A068B0F5806F0DD09E
:103770000B46009200228021204600F029F898B1E3
:10378000606D40F020006065032038BD0B4600925C
:1037900000220121204600F01BF828B1606D40F0A6
:1037A00020006065032038BD002038BD38B50446D0
:1037B0000B46009200228021204600F009F828B133
:1037C000606D40F020006065032038BD002038BDEA
:1037D0002DE9F84304460F4690469946089DFCF7AC
:1037E000F7FF401BA9EB0005FCF7F2FF06462D484A
:1037F0000068C0F3CB30684300902068806837EAE7
:1038000000000ED00020404546D0B9F1FF3F3BD02C
:10381000FCF7DEFF801BA84205D225B1009870B3EB
:103820002FE00120EFE72068416821F0E0014160CE
:103830006068B0F5827F0BD1A068B0F5004F02D070
:10384000B0F5806F04D12068016821F0400101606B
:10385000A06AB0F5005F09D12068016821F4005129
:1038600001602068016841F400510160012084F882
:103870005100002084F850000320BDE8F883FFE7E2
:1038800000250098401E00902068806837EA0000FC
:1038900005D000204045B8D10020BDE8F8830120C4
:1038A000F8E70000980000207047FCF797BF30B59C
:1038B00093B028216846FCF7BAFC14210AA8FCF74B
:1038C000B6FC00240F94092001211094009011945B
:1038D00012944FF4803004910691CDE90104022541
:1038E000CDE907504FF4E01009906846FDF778FFE6
:1038F00008B172B6FEE70F20CDE90A054FF48060EB
:10390000CDE90C400E9002210AA8FDF75BFE08B13C
:1039100072B6FEE711200F904FF4007010901294D1
:103920000FA8FDF7B7FD002801D072B6FEE713B06F
:1039300030BD704710B501F005FFBDE810400148EB
:10394000FEF79DBF7002002010B54FF47A7002F0B0
:10395000B3F8BDE810400148FEF791BFB80200205F
:1039600030B40268194B1A4CDFF868C0984206D090
:10397000B0F1804F03D0A04201D0604503D122F0C6
:1039800070024D682A43984206D0B0F1804F03D0B0
:10399000A04201D0604505D122F44072D1F80CC09C
:1039A0004CEA0202D1F814C022F0800242EA0C0272
:1039B00002608A68C2620A688262984201D109691B
:1039C00001630121416130BC70470000002C0140BF
:1039D000000400400008004001F01F0101238B405B
:1039E000D0F820C02CEA03030362036A02FA01F153
:1039F000194301627047D0F808C02CF47F4C42EAAA
:103A00000322114341EA0C0181607047826822F071
:103A10007002114341F007018160704710B4036ADE
:103A2000026A22F0010202624268D0F818C02CF04B
:103A3000700C2CF0030C0C6844EA0C0C23F002030D
:103A40008C6823430E4CA04206D123F00803CC68B7
:103A500044EA030323F0040309D122F4807222F420
:103A600000724C6944EA02028C6944EA0202426034
:103A7000C0F818C049684163036210BC7047000079
:103A8000002C014010B4036A026A22F010020262A4
:103A90004268D0F818C02CF4E04C2CF4407C0C6840
:103AA0004CEA042C23F020038C6843EA04130E4CE8
:103AB000A04206D123F08003CC6843EA041323F02C
:103AC000400309D122F4806222F400624C6942EA88
:103AD00084028C6942EA84024260C0F818C04968D6
:103AE0008163036210BC7047002C014010B4036A6C
:103AF000026A22F4807202624268D0F81CC02CF084
:103B0000700C2CF0030C0C6844EA0C0C23F40073CA
:103B10008C6843EA04230E4CA04206D123F40063D0
:103B2000CC6843EA042323F4806309D122F4805251
:103B300022F400524C6942EA04128C6942EA0412EF
:103B40004260C0F81CC04968C163036210BC704782
:103B5000002C014010B4036A026A22F4805202620F
:103B60004268D0F81CC02CF4E04C2CF4407C0C686B
:103B70004CEA042C23F400538C6843EA0433A0F18C
:103B80008044B4F5963404D122F480424C6942EA70
:103B900084124260C0F81CC049680164036210BC12
:103BA0007047036AD0F820C02CF0010CC0F820C088
:103BB000D0F818C02CF0F00C4CEA021223F00A03E3
:103BC0001943826101627047036AD0F820C02CF06B
:103BD000100CC0F820C0D0F818C02CF4704C4CEA7F
:103BE000023223F0A00343EA0111826101627047AF
:103BF00070B5044620680169E26821F44051114320
:103C000001612169A0680843616901432068C268B5
:103C100022F4037222F4A0521143C160206841696A
:103C2000A26921F44071114341612068A0F18041F3
:103C3000B1F59C313AD0FDF78BFD00EBC00101EBF3
:103C4000001061681B4A8900B0FBF1F3A2FB03532B
:103C5000B0FBF1FC5B096FF018056B430CEB8303C1
:103C60004FF0320C0CEB0313A2FB03535B0903F080
:103C7000F005B0FBF1F3A2FB03635B0905EB031353
:103C8000B0FBF1F5B0FBF1F0A2FB001040096FF0C2
:103C90001801484305EB80000CEB0010A2FB00105C
:103CA0002168C0F343101844886070BDFDF760FDC3
:103CB000C3E700001F85EB5110B5D0F8B42252685D
:103CC0009047002010BD90F89C22012A05D0022ABE
:103CD00003D0032A01D000F019B84988012904D182
:103CE0000021C0F8A41200F035B8704710B5134693
:103CF0000A46002100F004FC002010BD10B5134658
:103D00000A46002100F09AFC002010BD10B50446C0
:103D10008021204600F077FC2046BDE810400021BD
:103D200000F071BC10B50521C0F8941200231A46AA
:103D3000194600F0E5FB002010BD10B50223C0F8C5
:103D40009432C261026213460A46002100F076FCFA
:103D5000002010BD10B50421C0F8941200231A46AB
:103D6000194600F06BFC002010BD000010B50A469B
:103D7000024903A000F084F9004810BD100900209A
:103D800048494420436F6E6669670000122008802E
:103D9000004870476800002010B50A46024903A099
:103DA00000F06EF9004810BD100900204849442079
:103DB000496E7465726661636500000004200880C6
:103DC000004870476400002010B50A46024903A06D
:103DD00000F056F9004810BD1009002053544D69F9
:103DE00063726F656C656374726F6E6963730000F4
:103DF00010B50A46024903A000F042F9004810BD80
:103E00001009002053544D33322048756D616E20E7
:103E1000696E7465726661636500000010B51A20F2
:103E200008800A480168001D0468001D0068081821
:103E300009D008220649FEF780FF05490422103107
:103E40002046FEF77AFF0248801E10BDE8F7FF1FEC
:103E50007E000020CA88012A01D0FFF757BF90F8E2
:103E60009C22012A05D0022A03D0032A08D0FFF79A
:103E70004DBF00218160012200F10801FFF75DBF05
:103E80000122011DFFF759BF2DE9F84304460F46F3
:103E900000200090002600257888010A082970D2A9
:103EA000DFE801F0AB040C22ABAB8B9AD4F8B01274
:103EB000207C0A68694690470646A3E0207C4FF0C4
:103EC000020840B1D4F8B402C16A68468847064681
:103ED00086F8018096E0D4F8B402816A6846884783
:103EE000064686F801808DE0C0B206285FD2DFE882
:103EF00000F0031221303F4FD4F8B002426822B1E3
:103F0000207C6946904706467CE039462046FFF70C
:103F1000FDFE012576E0D4F8B002826822B1207C53
:103F20006946904706466DE039462046FFF7EEFEAB
:103F3000012567E0D4F8B002C26822B1207C69464E
:103F4000904706465EE039462046FFF7DFFE012532
:103F500058E0D4F8B002026922B1207C694690474B
:103F600006464FE039462046FFF7D0FE012549E0DE
:103F7000D4F8B00242692AB1207C694690470646CF
:103F800040E03AE039462046FFF7C0FE012539E01F
:103F9000D4F8B002826922B1207C69469047064677
:103FA00030E039462046FFF7B1FE01252AE03946C8
:103FB0002046FFF7ABFE012524E0207C28B13946DE
:103FC0002046FFF7A3FE01251CE0D4F8B402416BA4
:103FD00068468847064615E0207C28B139462046C9
:103FE000FFF794FE01250DE0D4F8B402016B68469A
:103FF000884706460721717004E039462046FFF7DE
:1040000085FE0125002D12D1BDF8000048B1FA88C7
:104010003AB1824200D90246009231462046FFF76B
:104020008CFEF888002802D12046FFF793FEBDE8F9
:10403000F88300210278002A05D0491CC9B2401C2F
:104040000278002AF9D10846704790F89C22012A8C
:1040500005D0022A03D0032A01D0FFF757BECA8831
:10406000022A01D0FFF752BE0121C160D0F8A4128C
:1040700009B10321C160022200F10C01FFF75DBE0E
:1040800070B504460D461646002C1AD02046FFF7A0
:10409000D0FF022101EB40003080307828700321EE
:1040A00002206970217800290BD0002214F8013B0E
:1040B000411CC9B22B54481CC0B26A542178002953
:1040C000F4D170BD01004FF0000004D0012901D0EF
:1040D000022901D00220704701207047D0F8B802B1
:1040E000002101730020704770B5044681212046ED
:1040F00000F0FFF80025E562D4F8B80218B100F02E
:10410000DDFCC4F8B852002070BD00000A21018017
:10411000004870475C010020222101800048704760
:10412000E40000202221018000487047080100209F
:1041300022210180004870472C01002010B5044660
:10414000062303228121204600F0CEF90120E062FF
:10415000102000F0B5FCC4F8B80218B100210173BA
:10416000002010BD022010BD10B51346D0F8B822B3
:1041700090F89CC2BCF1030F0CD192F80CC0BCF1BA
:10418000000F07D14FF0010C82F80CC00A468121C4
:1041900000F054FA002010BD38B50346D3F8B80239
:1041A0000022009200240A7812F0600228D0202A0F
:1041B00005D01846FFF7AAFD0224204638BD4A78EC
:1041C000022A17D0032A0BD00A2A0FD00B2A04D0B8
:1041D0001846FFF79BFD0224EFE789780160ECE7C2
:1041E000014601221846FFF7A8FDE6E74988090ABB
:1041F0004160E2E7011D01221846FFF79EFDDCE762
:104200004A7852B1062A17D00A2A33D00B2A41D055
:104210001846FFF77BFD0224CFE793F89C020328A2
:1042200004D01846FFF772FD0224C6E70222694651
:104230001846FFF782FDC0E748882222B2EB102F14
:1042400005D1CA88452A00D94522184808E021220C
:10425000B2EB102F09D11648CA88092A00D90922C1
:1042600001461846FFF769FDA7E71846FFF74EFD20
:104270000224A2E793F89C22032A04D01846FFF7F1
:1042800045FD022499E700F1080101221846FFF7D5
:1042900054FD92E793F89C22032A04D01846FFF7B6
:1042A00035FD022489E78978816086E7680100206E
:1042B0005001002010B5002810D0D0F8B43213B14E
:1042C0000023C0F8B43209B1C0F8B012012180F85F
:1042D0009C12027000F0C6F8002010BD022010BD34
:1042E00010B5D0F8C002FCF77EFBBDE81040FFF728
:1042F000E9BE10B5D0F8C002FCF750FBBDE8104095
:10430000FFF7E0BE70B504469446002909D0D4F802
:10431000B40242691AB194F89C02032859D00220D1
:1043200070BD04F11400D4F894120025022904D0C1
:10433000042940D000293ED041E0C36801698B4286
:104340000DD9591AC1608AB261462046FFF7D6FCE2
:1043500000231A461946204600F0D2F82FE0806864
:10436000B0FBF1F201FB12029AB9884211D3D4F8E2
:10437000981288420DD2002211462046FFF7BEFC5B
:10438000C4F8985200231A461946204600F0B8F89F
:1043900015E0D4F8B402C16829B194F89C0203284E
:1043A00001D1204688478021204600F02CF9204684
:1043B000FFF7B8FC03E08021204600F024F994F8D0
:1043C000A002012807D1204600F05EF984F8A0522F
:1043D00001E020469047002070BD10B50446084615
:1043E0001146002809D0D4F8B4128A691AB194F899
:1043F0009C12032931D0022010BD04F5AA70D4F814
:104400009432032B02D0052B1FD029E0D0F810C026
:10441000C36863450BD9A3EB0C03C36000698342F7
:1044200000D303469AB22046FFF760FC18E0D4F8A8
:10443000B402016929B194F89C02032801D12046F5
:1044400088472046FFF786FC0AE00020C4F8940263
:104450000021204600F0D7F802E0014620469047B0
:10446000002010BD10B5044615481649C0F8EC42AE
:10447000C4F8C0020160082141600221816000216E
:104480008161C1610162FCF7A2FE08B1FBF735FF53
:104490000022D4F8C0021823114604F53074FCF74A
:1044A0004BFA5823002280212068FCF745FA4FF48C
:1044B0008073002281212068FCF73EFA002010BDA5
:1044C00020060020005C00400A0601F07F01D0F8C1
:1044D000C00201EB810100EBC10002D590F82A0077
:1044E000704790F86A01704710B51C461346D0F823
:1044F000C0022246FCF71CFDBDE81040FFF7E2BDFC
:1045000010B5D0F8C002FCF73EFDBDE81040FFF743
:10451000D9BD70B504460022402311462046FFF75E
:10452000E3FF0125C4F858514026C4F864614023D4
:10453000002280212046FFF7D7FFA561666284F83C
:104540009C520020C4F894026060C4F8A402D4F81D
:10455000B80228B1D4F8B40200214268204690473E
:10456000002070BD90F89C12042903D190F89D1290
:1045700080F89C120020704710B590F89C12032917
:1045800004D1D0F8B412C96901B18847002010BD28
:1045900001740020704710B5D0F8C002FCF7C9FEC6
:1045A000BDE81040FFF78EBD10B5044604F52A7033
:1045B00000F04DF80120C4F89402B4F8AE02C4F83B
:1045C000980294F8A81211F01F000AD001280ED00A
:1045D000022812D001F08001204600F014F80020DB
:1045E00010BD04F52A71204600F0FBF8F7E704F54A
:1045F0002A71204600F02DFAF1E704F52A712046D1
:1046000000F02FF9EBE710B5D0F8C002FCF7D0FCB2
:10461000BDE81040FFF756BD10B5D0F8C002FCF75A
:10462000A3FEBDE81040FFF74DBD90F89C1280F846
:104630009D12042180F89C120020704710B5D0F81C
:10464000C002FCF7EEFCBDE81040FFF73BBD0A7866
:1046500002704A7842708A78CB7802EB032242805B
:104660000A794B7902EB032282808A79C97902EBBD
:104670000121C180704702460020002902D0C2F803
:10468000B4127047022070470020704770B504468E
:104690008888002821D1C888F8B9488880281CD289
:1046A00000F07F0594F89C0203280DD084F89E52F8
:1046B00029462046FFF76FFF2046FFF74BFB45B129
:1046C000022084F89C0270BD2046BDE87040FFF7D0
:1046D0001DBB012084F89C0270BD2046BDE87040DF
:1046E000FFF714BB10B50224D0F8B422002A03D07F
:1046F0001268904700B90024204610BD70B50446EA
:104700000D46304EA9783170012905D92946204639
:10471000BDE87040FFF7FABA94F89C0202280BD06B
:10472000032823D029462046FFF7F0FA31782046A7
:10473000BDE87040FFF7C0BA99B16160032084F80A
:104740009C022046FFF7CEFF022804D02046BDE899
:104750007040FFF7FFBA29462046BDE87040FFF7DA
:10476000D5BA2046BDE87040FFF7F4BA91B1606851
:10477000884221D0C1B22046FFF79EFA31786160AD
:104780002046FFF7AFFF022810D02046BDE870405A
:10479000FFF7E0BA022084F89C0261602046FFF730
:1047A0008BFA2046BDE87040FFF7D4BA2946204670
:1047B000BDE87040FFF7AABA2046BDE87040FFF799
:1047C000C9BA0000A80000204988012903D1C0F817
:1047D000A412FFF7BFBA704710B5FFF71DFF002006
:1047E00010BD10B503460024087810F060020ED00A
:1047F000202A06D0402A04D01846FFF787FA204620
:1048000010BDD3F8B402826818469047F7E748789D
:104810000A2822D2DFE800F0151D211921090521FF
:10482000110D1846FFF730FBE9E71846FFF72EFF9A
:10483000E5E71846FFF762FFE1E71846FFF70AFBD6
:10484000DDE71846FFF701FCD9E71846FFF7BCFF84
:10485000D5E71846FFF737FAD1E71846FFF756FABB
:10486000CDE72DE9F041044608460026017903789A
:1048700013F0600211D0202A08D0402A06D0014649
:104880002046FFF743FA3046BDE8F081D4F8B41271
:104890008A68014620469047F5E703F06002202A27
:1048A0000BD04278002A61D0012A37D0032A0CD0DD
:1048B00001462046FFF72AFAE5E7D4F8B4128A68E1
:1048C00001462046BDE8F041104794F89C22022A98
:1048D00006D0032A14D001462046FFF717FAD2E784
:1048E00049B1802907D02046FFF78DFE8021204660
:1048F000FFF789FEC7E701462046FFF707FAC2E740
:1049000042883AB931B1802904D0C08810B9204614
:10491000FFF779FE2046FFF71DFAB4E794F89C22D2
:10492000022A06D0032A14D001462046FFF7EEF9EA
:10493000A9E749B1802907D02046FFF764FE80210E
:104940002046FFF760FE9EE701462046FFF7DEF9AE
:1049500099E74088002896D111F07F0F02D02046B9
:10496000FFF7BEFC2046FFF7F5F98CE794F89C2290
:104970000027022A06D0032A26D001462046FFF748
:10498000C5F980E731B1802904D001462046FFF700
:10499000BDF978E711F0800F08D001F07F0000EB3F
:1049A000800004EB800000F1140107E001F07F00BB
:1049B00000EB800004EB800000F5AA710F6002227A
:1049C0002046FFF7BAF95EE711F0800F0CD001F036
:1049D0000F0202EB820204EB820292696AB901467D
:1049E0002046FFF793F94EE701F00F0202EB820237
:1049F00004EB8202D2F858215AB111F0800F0DD089
:104A000001F07F0000EB800004EB800000F1140552
:104A10000CE001462046FFF779F934E701F07F000A
:104A200000EB800004EB800000F5AA7541B18029FD
:104A300006D02046FFF748FD20B10120286002E0A3
:104A40002F6000E02F60022229462046FFF775F90B
:104A500019E770B505460C46207810F0600209D0C1
:104A6000202A07D0402A05D021462846FFF74EF9D4
:104A7000002070BD95F89C22012A08D0022A06D099
:104A8000032A04D021462846FFF740F9F0E72079B1
:104A900001280ED8D5F8B4022146826828469047EE
:104AA000E1880029E4D10028E2D12846FFF752F935
:104AB000DEE721462846FFF729F9D9E770470000CD
:104AC000004870470C0600202DE9F00100250C7805
:104AD00030F8242022F4CE6222F4E042CB78002B7E
:104AE0007CD0012B78D0022B02D0032B79D001256A
:104AF00048F2800C42EA0C0220F824200A7830F8B0
:104B0000223023F0700323F4E043134343EA0C0301
:104B100020F822300A7B042748F2C0034CF28006BA
:104B2000002A64D0CA78022A00F007810A7830F897
:104B3000224024F4B87424F4E04444EA0C0420F83D
:104B40002240B0F8502002440C7802EB04120C8989
:104B500024F00104A2F80044B0F8502002440C787C
:104B600007EBC40402EB44024C8924F00104A2F8D0
:104B700000444A78002A74D00A7830F8224014F4AD
:104B8000804F08D030F8224024F0700424F4E04430
:104B9000344320F822400A7830F8224014F0400FC5
:104BA00008D030F8224024F0700424F4E044234379
:104BB00020F82230CA78012A7ED00A7830F82230D4
:104BC00023F4415323F4804383F0200343EA0C038E
:104BD00020F8223003E101E006E002E042F4007236
:104BE00086E742F4C06283E742F4806280E74A7855
:104BF000B2B3B0F8502002440C7802EB0412CC8817
:104C000024F00104A2F800440A7830F8224014F09D
:104C1000400F08D030F8224024F0700424F4E0441F
:104C2000234320F82230CA78012A0DD0097830F8C1
:104C3000212022F4415222F4804282F0200242EAF2
:104C40000C0220F82120D5E0097830F8212022F448
:104C5000415222F4804242EA0C0220F82120C9E0AD
:104C600000E078E0B0F8502002440B7807EBC30373
:104C700002EB4302CB8823F00103A2F80034B0F822
:104C8000502002440B78062404EBC30302EB4302DA
:104C900002F580621388C3F3090313800B693E2B6E
:104CA0000ED95C0913F01F0F00D1641E17884FF452
:104CB000004343EA842300E086E03B4313800CE09A
:104CC0004BB35C0813F0010F00D0641C13884FF63F
:104CD000FF7707EA8424234313800A7830F82230D0
:104CE00013F4804F08D030F8223023F0700323F4FF
:104CF000E043334320F82230097889B130F821208D
:104D000022F0700222F4804282F4005242EA0C0245
:104D100020F821206EE0138843F400431380DCE781
:104D2000018821F0700121F4804181F4805181F4E7
:104D3000005141EA0C0101805CE00A7830F8224021
:104D400024F0700424F4E04448F2801844EA080493
:104D500020F82240F5E60A7830F8224014F4804F1B
:104D600008D030F8224024F0700424F4E0443443A6
:104D700020F822400A7830F8224014F0400F08D082
:104D800030F8224024F0700424F4E044234320F857
:104D900022300A7830F8223023F0700323F4804365
:104DA00083F4805383F4005343EA0C0320F8223049
:104DB000097830F8212022F4415222F4804242EA5C
:104DC0000C0220F8212015E00A7830F8223023F474
:104DD000415323F4804343EA0C0320F8223009783E
:104DE00030F8212022F0700222F4804242EA0C02C4
:104DF00020F821202846BDE8F001704700207047C8
:104E000070B40E7B4B780A7848F2800C48F2C004EC
:104E10004CF28005002E41D0002B75D030F82230A6
:104E200013F4804F08D030F8223023F0700323F4BD
:104E3000E0432B4320F822300A7830F8223013F078
:104E4000400F08D030F8223023F0700323F4E04301
:104E5000234320F822300A7830F8223023F0700300
:104E600023F4E0432B4320F822300A7830F8223034
:104E700023F4415323F4804343EA0C0320F8223007
:104E8000097830F8212022F0700222F4804242EAB0
:104E90000C0220F8212070BC00207047CBB130F804
:104EA000223013F0400F08D030F8223023F0700386
:104EB00023F4E043234320F82230097830F82120FE
:104EC00022F4415222F4804242EA0C0220F82120CE
:104ED000E1E730F8223013F4804F08D030F8223068
:104EE00023F0700323F4E0432B4320F822300978A9
:104EF00030F8212022F0700222F4804242EA0C02B3
:104F000020F82120C7E7FFE730F8223013F4804F64
:104F100008D030F8223023F0700323F4E0432B4311
:104F200020F822300A7830F8223013F0400F08D0F1
:104F300030F8223023F0700323F4E043234320F8B9
:104F400022300A7830F8223023F0700323F4E04353
:104F5000234320F822300A7830F8223023F07003FF
:104F600023F4804343EA0C0320F82230097830F818
:104F7000212022F4415222F4804242EA0C0220F81D
:104F8000212088E700207047002070470121A0F809
:104F900040100021A0F84010A0F84410A0F85010D4
:104FA00000207047B0F8401021F43F41A0F84010B5
:104FB000002070470020704710B40A7B002A45D1BA
:104FC0004A7848F2800C0AB30A7830F8223013F09D
:104FD000400F0AD030F8223023F0700323F4E0436E
:104FE00048F2C004234320F82230CA78012A2DD089
:104FF000097830F8212022F4415222F4804282F0D4
:10500000200242EA0C0220F821201FE00A7830F842
:10501000223013F4804F0AD030F8223023F070038E
:1050200023F4E0434CF28004234320F82230097833
:1050300030F8212022F0700222F4804282F4805263
:1050400082F4005242EA0C0220F8212010BC002019
:1050500070474A78097848F28003002A0BD030F86C
:10506000212022F4415222F4804282F010021A439D
:1050700020F821200AE030F8212022F0700222F4EA
:10508000804282F480521A4320F821200020704789
:105090002DE9F04F05460C4606276278217B4FF03C
:1050A000000B4FF002084FF400494FF6FF7A012A37
:1050B0000CD0002900F0B481E078022800F0E681ED
:1050C000012800F06A820120BDE8F08FA6692069FE
:1050D000864200D90646E9B1E17802292CD0206A3F
:1050E000801B2062207835F8201011F0400F00F06E
:1050F0007681B5F85010294407EBC00001EB400061
:10510000A0F800646289B3B22846616900F004FB2C
:1051100000F074B9B3B2E2882846616900F0FCFA85
:10512000B5F850002844217808EBC10100EB41009C
:10513000A0F8006400F062B9216A814240F2328135
:10514000207835F8201021F0700121F4E04148F278
:105150008012114325F82010206A801B20622078DD
:1051600035F8201011F0400F77D0617811B1012986
:105170002BD033E0B5F85010294407EBC00001EB09
:10518000400000F580600188C1F3090101803E2ED6
:105190000AD9710916F01F0F00D1491E028849EA89
:1051A00081211143018019E056B1710816F0010FF9
:1051B00000D0491C02880AEA8121114301800DE0D8
:1051C000018841F40041018008E0B5F850205119F0
:1051D00007EBC00001EB4000A0F800646289B3B2A5
:1051E0002846616900F098FA60693044606121697D
:1051F000206A884202D9801B206202E00646C4F879
:1052000020B0607810B101282DD036E0B5F85000FC
:105210002844217808EBC10100EB410000F58060D3
:105220000188C1F3090101803E2E0AD9710916F0E7
:105230001F0F00D1491E028849EA812111430180D4
:105240001BE05EB1710816F0010F00D0491C028806
:105250000AEA8121114301800FE015E0018841F441
:105260000041018009E0B5F850002844217808EB9E
:10527000C10100EB4100A0F800642289B3B22846C6
:10528000616900F049FAB9E0617811B101292BD0C8
:1052900033E0B5F85010294408EBC00001EB4000A2
:1052A00000F580600188C1F3090101803E2E0AD912
:1052B000710916F01F0F00D1491E028849EA8121A9
:1052C0001143018019E056B1710816F0010F00D0AA
:1052D000491C02880AEA8121114301800DE00188FE
:1052E00041F40041018008E0B5F85010294408EB72
:1052F000C00001EB4000A0F800642289B3B2284648
:10530000616900F009FA6069304460612169206ACE
:10531000884202D9801B206202E00646C4F820B011
:10532000607810B101282CD035E0B5F85000284441
:10533000217807EBC10100EB410000F58060018896
:10534000C1F3090101803E2E0AD9710916F01F0F21
:1053500000D1491E028849EA8121114301801AE0E7
:1053600056B1710816F0010F00D0491C02880AEAF4
:105370008121114301800EE0018841F40041018048
:1053800009E0B5F850104819217807EBC10100EB8E
:105390004100A0F800646289B3B22846616900F058
:1053A000BBF92BE0207835F8202022F4B87222F4E3
:1053B000E04248F280031A4325F82020B5F8500057
:1053C0002844227808EBC20200EB42008BB2A0F81E
:1053D000003422892846616900F09EF90EE0B5F894
:1053E0005010294408EBC00001EB4000A0F8006415
:1053F0002289B3B22846616900F08EF9207835F829
:10540000201021F4415121F4804181F0100181F0FC
:10541000200148F28002114325F8201000F040B925
:10542000A1692069814202D9091AA16102E00846F6
:10543000C4F818B0B5F850102944227807EBC2021E
:1054400001EB420101F580610A88C2F309020A807A
:105450003E280AD9420910F01F0F00D1521E0B88B6
:1054600049EA8220184308800AE150B1420810F04E
:10547000010F00D0521C08880AEA822210430880DB
:10548000FEE0088840F400400880F9E032BBB5F83F
:1054900050002844217808EBC10100EB410000F5E1
:1054A00080600188C1F30901018021693E290AD980
:1054B0004A0911F01F0F00D1521E038849EA8221C8
:1054C000194301800AE071B14A0811F0010F00D0C0
:1054D000521C01880AEA822211430180607838B1A7
:1054E000012832D03CE0018841F400410180F5E719
:1054F000B5F850002844217807EBC10100EB4100CA
:1055000000F580600188C1F30901018021693E290D
:105510000AD94A0911F01F0F00D1521E038849EA27
:105520008221194301801BE051B14A0811F0010F9B
:1055300000D0521C01880AEA8222114301800FE048
:10554000018841F4004101800AE0B5F85010481983
:10555000217807EBC10100EB4100218AA0F800147B
:10556000E069E0B3217835F8210010F4804F02D0D3
:1055700010F0400F05D100F4804200F040001043CD
:105580007ED135F8210020F0700020F4E04048F290
:10559000C002104325F8210072E0A1692069814210
:1055A00002D9091AA16102E00846C4F818B03ABB52
:1055B000B5F850102944227808EBC20201EB4201F1
:1055C00001F580610A88C2F309020A803E280CD9DD
:1055D000420910F01F0F00D1521E0B8800E04FE06F
:1055E00049EA82221A430A800AE070B1420810F0A8
:1055F000010F00D0521C0B880AEA82221A430A804B
:10560000617839B1012931D03AE00A8842F4004288
:105610000A80F5E7B5F850102944227807EBC2025A
:1056200001EB420101F580610A88C2F309020A8098
:105630003E280AD9420910F01F0F00D1521E0B88D4
:1056400049EA8220184308801AE050B1420810F05D
:10565000010F00D0521C08880AEA822210430880F9
:105660000EE0088840F40040088009E0B5F85020BA
:105670005119227807EBC20201EB4201A1F80004A4
:10568000207835F8201021F0700121F4804181F458
:10569000805181F4005148F28002114325F8201016
:1056A0000020BDE8F08F0021A0F844104FF43F41E6
:1056B000A0F84010002070470148FBF7CABC00006A
:1056C00020060020B0F84400704710B44FEA530C95
:1056D00000EB420000F58060BCF1000F0CD00288A6
:1056E000841C0A70481C110A0170411CA01CACF1FA
:1056F000010CBCF1000FF2D113F0010F01D00088B2
:10570000087010BC704700207047002902D180212A
:10571000A0F84C10002070475B1C5B0800EB4200B7
:1057200000F58060002B0AD00A7891F801C042EAA7
:105730000C220280001D891C5B1E002BF4D17047D7
:10574000FEE7000006480068426A0649B2F5004FCD
:10575000086801D2401C00E0401E0860704700004D
:10576000700200201400002010B50020FCF703FE9A
:105770004FF0E0210020086101490920086010BDB8
:10578000440000204FF47A7170B5B0FBF1F2B0FB29
:10579000F1F401FB12052CB1074E304600F00EF873
:1057A000641EFAD1002D06D04FF47A706843BDE82C
:1057B000704000F003B870BD40420F004FF0E02190
:1057C00000228A61084B1B6858434861086940F011
:1057D000010008610869C003FCD5086920F00100D8
:1057E00008618A61704700004400002001221021F6
:1057F0000148FAF7E6BF00000008014010B500F0CC
:10580000F5FA00F0CDFB00F06FF900F033F8017805
:105810000A061249A1F10C040BD5C37882784A70AC
:105820008B7042790079C8700A71207840F00400CA
:1058300006E0002021F8010F4880207820F00400C5
:10584000207010F0FF0F07D0044906220448FEF72D
:105850008BFC61780843607010BD000024000020BC
:1058600048030020002210210148FAF7AABF0000D7
:105870000008014000487047B0010020014800685E
:10588000406A7047700200200148006870470000BD
:105890000000002010B53C210448FCF795FF0349A7
:1058A0004FF400400968486210BD000070020020FB
:1058B00070B5214800F078F81F4C00224FF448736F
:1058C000A078052801D3A2702380208843F64F6575
:1058D000A0F13201A94205D23221B0FBF1F501FB62
:1058E000150000B12380E1786420642900D9E070BC
:1058F0002179642900D920716179642900D9607106
:10590000A079072807D30D48A2710178E17041788A
:10591000217180786071208800F0B8F8A07800F0DC
:1059200069F962792179E07800F09CF9BDE870406E
:10593000014800F021B900002A00002000600008A2
:1059400010B500210A48FDF731F904210848FDF798
:105950002DF908210648FDF729F905484FF47A7119
:10596000026851630268916300686421C16310BDDD
:10597000B802002010B500210A48FDF717F90421EC
:105980000848FDF713F908210648FDF70FF9054807
:1059900040F2E73102685163026891630068C163B5
:1059A00010BD00002802002010B5054A0823002180
:1059B000545C4454491C9942FAD3002010BD0000A5
:1059C00000FC0108FAF712FFFDF771FFFDF7D0F9AF
:1059D000FDF75EFAFDF780FAFDF7F4FAFDF72AFB12
:1059E000FDF786FBFDF7A0FBFDF71EFA0948FCF763
:1059F000ABFD0948FCF7A8FDFFF7B6FEFFF74AFF2D
:105A0000FFF7B8FFFFF79CFF00F0ECFA00F006F894
:105A1000FCE7000028020020B802002070B5FFF764
:105A2000EDFE00F0ADF9174D4FF400412846FAF7AE
:105A3000C1FE154CE0B14FF480412846FAF7BAFE9A
:105A4000A168D8B14FF47A70814202D0A06000F012
:105A5000BBF800F03DFA607820B1002211461046F4
:105A600000F000F9FFF710FFBDE87040FFF7A6BE99
:105A7000A0687D28EDD07D20A060E8E74FF4FA70A3
:105A8000E2E7000000100140180000203221B0FBC6
:105A9000F1F010B5401E84B2B4F5A07F01D340F2FE
:105AA0003F14210A0F2000F053F8E1B20E2000F05D
:105AB0004FF8002010BD00000A4910B54A680244A2
:105AC0004A608B6818448860CC680023A24202D3E5
:105AD00001220A704B60B0F5FA5F02D301204870D2
